{
  "contractName": "Voting",
  "abi": [
    {
      "inputs": [],
      "stateMutability": "nonpayable",
      "type": "constructor"
    },
    {
      "inputs": [
        {
          "internalType": "address",
          "name": "voter",
          "type": "address"
        }
      ],
      "name": "AlreadyVoted",
      "type": "error"
    },
    {
      "inputs": [
        {
          "internalType": "string",
          "name": "field",
          "type": "string"
        }
      ],
      "name": "EmptyString",
      "type": "error"
    },
    {
      "inputs": [
        {
          "internalType": "uint256",
          "name": "age",
          "type": "uint256"
        }
      ],
      "name": "InvalidAge",
      "type": "error"
    },
    {
      "inputs": [
        {
          "internalType": "uint256",
          "name": "candidateId",
          "type": "uint256"
        }
      ],
      "name": "InvalidCandidate",
      "type": "error"
    },
    {
      "inputs": [],
      "name": "InvalidTimeRange",
      "type": "error"
    },
    {
      "inputs": [
        {
          "internalType": "address",
          "name": "caller",
          "type": "address"
        }
      ],
      "name": "NotOwner",
      "type": "error"
    },
    {
      "inputs": [],
      "name": "VotingAlreadyInitialized",
      "type": "error"
    },
    {
      "inputs": [],
      "name": "VotingNotActive",
      "type": "error"
    },
    {
      "anonymous": false,
      "inputs": [
        {
          "indexed": true,
          "internalType": "uint256",
          "name": "candidateId",
          "type": "uint256"
        },
        {
          "indexed": false,
          "internalType": "string",
          "name": "name",
          "type": "string"
        },
        {
          "indexed": false,
          "internalType": "string",
          "name": "party",
          "type": "string"
        }
      ],
      "name": "CandidateAdded",
      "type": "event"
    },
    {
      "anonymous": false,
      "inputs": [
        {
          "indexed": true,
          "internalType": "address",
          "name": "previousOwner",
          "type": "address"
        },
        {
          "indexed": true,
          "internalType": "address",
          "name": "newOwner",
          "type": "address"
        }
      ],
      "name": "OwnershipTransferred",
      "type": "event"
    },
    {
      "anonymous": false,
      "inputs": [
        {
          "indexed": true,
          "internalType": "address",
          "name": "voter",
          "type": "address"
        },
        {
          "indexed": true,
          "internalType": "uint256",
          "name": "candidateId",
          "type": "uint256"
        }
      ],
      "name": "VoteCast",
      "type": "event"
    },
    {
      "anonymous": false,
      "inputs": [
        {
          "indexed": false,
          "internalType": "uint256",
          "name": "startTime",
          "type": "uint256"
        },
        {
          "indexed": false,
          "internalType": "uint256",
          "name": "endTime",
          "type": "uint256"
        }
      ],
      "name": "VotingPeriodSet",
      "type": "event"
    },
    {
      "inputs": [
        {
          "internalType": "uint256",
          "name": "",
          "type": "uint256"
        }
      ],
      "name": "candidates",
      "outputs": [
        {
          "internalType": "uint256",
          "name": "id",
          "type": "uint256"
        },
        {
          "internalType": "string",
          "name": "name",
          "type": "string"
        },
        {
          "internalType": "uint256",
          "name": "age",
          "type": "uint256"
        },
        {
          "internalType": "string",
          "name": "dateOfBirth",
          "type": "string"
        },
        {
          "internalType": "string",
          "name": "panNumber",
          "type": "string"
        },
        {
          "internalType": "string",
          "name": "aadharNumber",
          "type": "string"
        },
        {
          "internalType": "string",
          "name": "voterEpicNumber",
          "type": "string"
        },
        {
          "internalType": "string",
          "name": "electionCenter",
          "type": "string"
        },
        {
          "internalType": "string",
          "name": "party",
          "type": "string"
        },
        {
          "internalType": "string",
          "name": "candidateAddress",
          "type": "string"
        },
        {
          "internalType": "string",
          "name": "email",
          "type": "string"
        },
        {
          "internalType": "string",
          "name": "phoneNumber",
          "type": "string"
        },
        {
          "internalType": "string",
          "name": "candidateId",
          "type": "string"
        },
        {
          "internalType": "string",
          "name": "candidatePassword",
          "type": "string"
        },
        {
          "internalType": "uint256",
          "name": "voteCount",
          "type": "uint256"
        }
      ],
      "stateMutability": "view",
      "type": "function",
      "constant": true
    },
    {
      "inputs": [],
      "name": "countCandidates",
      "outputs": [
        {
          "internalType": "uint256",
          "name": "",
          "type": "uint256"
        }
      ],
      "stateMutability": "view",
      "type": "function",
      "constant": true
    },
    {
      "inputs": [],
      "name": "owner",
      "outputs": [
        {
          "internalType": "address",
          "name": "",
          "type": "address"
        }
      ],
      "stateMutability": "view",
      "type": "function",
      "constant": true
    },
    {
      "inputs": [
        {
          "internalType": "address",
          "name": "",
          "type": "address"
        }
      ],
      "name": "voterToCandidate",
      "outputs": [
        {
          "internalType": "uint256",
          "name": "",
          "type": "uint256"
        }
      ],
      "stateMutability": "view",
      "type": "function",
      "constant": true
    },
    {
      "inputs": [
        {
          "internalType": "address",
          "name": "",
          "type": "address"
        }
      ],
      "name": "voters",
      "outputs": [
        {
          "internalType": "bool",
          "name": "",
          "type": "bool"
        }
      ],
      "stateMutability": "view",
      "type": "function",
      "constant": true
    },
    {
      "inputs": [],
      "name": "votingEnd",
      "outputs": [
        {
          "internalType": "uint256",
          "name": "",
          "type": "uint256"
        }
      ],
      "stateMutability": "view",
      "type": "function",
      "constant": true
    },
    {
      "inputs": [],
      "name": "votingInitialized",
      "outputs": [
        {
          "internalType": "bool",
          "name": "",
          "type": "bool"
        }
      ],
      "stateMutability": "view",
      "type": "function",
      "constant": true
    },
    {
      "inputs": [],
      "name": "votingStart",
      "outputs": [
        {
          "internalType": "uint256",
          "name": "",
          "type": "uint256"
        }
      ],
      "stateMutability": "view",
      "type": "function",
      "constant": true
    },
    {
      "inputs": [
        {
          "internalType": "string",
          "name": "name",
          "type": "string"
        },
        {
          "internalType": "uint256",
          "name": "age",
          "type": "uint256"
        },
        {
          "internalType": "string",
          "name": "dateOfBirth",
          "type": "string"
        },
        {
          "internalType": "string",
          "name": "panNumber",
          "type": "string"
        },
        {
          "internalType": "string",
          "name": "aadharNumber",
          "type": "string"
        },
        {
          "internalType": "string",
          "name": "voterEpicNumber",
          "type": "string"
        },
        {
          "internalType": "string",
          "name": "electionCenter",
          "type": "string"
        },
        {
          "internalType": "string",
          "name": "party",
          "type": "string"
        },
        {
          "internalType": "string",
          "name": "candidateAddress",
          "type": "string"
        },
        {
          "internalType": "string",
          "name": "email",
          "type": "string"
        },
        {
          "internalType": "string",
          "name": "phoneNumber",
          "type": "string"
        },
        {
          "internalType": "string",
          "name": "candidateId",
          "type": "string"
        },
        {
          "internalType": "string",
          "name": "candidatePassword",
          "type": "string"
        }
      ],
      "name": "addCandidate",
      "outputs": [
        {
          "internalType": "uint256",
          "name": "",
          "type": "uint256"
        }
      ],
      "stateMutability": "nonpayable",
      "type": "function"
    },
    {
      "inputs": [
        {
          "internalType": "uint256",
          "name": "candidateID",
          "type": "uint256"
        }
      ],
      "name": "vote",
      "outputs": [],
      "stateMutability": "nonpayable",
      "type": "function"
    },
    {
      "inputs": [],
      "name": "checkVote",
      "outputs": [
        {
          "internalType": "bool",
          "name": "",
          "type": "bool"
        }
      ],
      "stateMutability": "view",
      "type": "function",
      "constant": true
    },
    {
      "inputs": [],
      "name": "getMyVote",
      "outputs": [
        {
          "internalType": "uint256",
          "name": "",
          "type": "uint256"
        }
      ],
      "stateMutability": "view",
      "type": "function",
      "constant": true
    },
    {
      "inputs": [],
      "name": "getCountCandidates",
      "outputs": [
        {
          "internalType": "uint256",
          "name": "",
          "type": "uint256"
        }
      ],
      "stateMutability": "view",
      "type": "function",
      "constant": true
    },
    {
      "inputs": [
        {
          "internalType": "uint256",
          "name": "candidateID",
          "type": "uint256"
        }
      ],
      "name": "getCandidate",
      "outputs": [
        {
          "internalType": "uint256",
          "name": "id",
          "type": "uint256"
        },
        {
          "internalType": "string",
          "name": "name",
          "type": "string"
        },
        {
          "internalType": "uint256",
          "name": "age",
          "type": "uint256"
        },
        {
          "internalType": "string",
          "name": "dateOfBirth",
          "type": "string"
        },
        {
          "internalType": "string",
          "name": "panNumber",
          "type": "string"
        },
        {
          "internalType": "string",
          "name": "aadharNumber",
          "type": "string"
        },
        {
          "internalType": "string",
          "name": "voterEpicNumber",
          "type": "string"
        },
        {
          "internalType": "string",
          "name": "electionCenter",
          "type": "string"
        },
        {
          "internalType": "string",
          "name": "party",
          "type": "string"
        },
        {
          "internalType": "string",
          "name": "candidateAddress",
          "type": "string"
        },
        {
          "internalType": "string",
          "name": "email",
          "type": "string"
        },
        {
          "internalType": "string",
          "name": "phoneNumber",
          "type": "string"
        },
        {
          "internalType": "string",
          "name": "candidateId",
          "type": "string"
        },
        {
          "internalType": "uint256",
          "name": "voteCount",
          "type": "uint256"
        }
      ],
      "stateMutability": "view",
      "type": "function",
      "constant": true
    },
    {
      "inputs": [],
      "name": "getAllCandidates",
      "outputs": [
        {
          "components": [
            {
              "internalType": "uint256",
              "name": "id",
              "type": "uint256"
            },
            {
              "internalType": "string",
              "name": "name",
              "type": "string"
            },
            {
              "internalType": "uint256",
              "name": "age",
              "type": "uint256"
            },
            {
              "internalType": "string",
              "name": "dateOfBirth",
              "type": "string"
            },
            {
              "internalType": "string",
              "name": "panNumber",
              "type": "string"
            },
            {
              "internalType": "string",
              "name": "aadharNumber",
              "type": "string"
            },
            {
              "internalType": "string",
              "name": "voterEpicNumber",
              "type": "string"
            },
            {
              "internalType": "string",
              "name": "electionCenter",
              "type": "string"
            },
            {
              "internalType": "string",
              "name": "party",
              "type": "string"
            },
            {
              "internalType": "string",
              "name": "candidateAddress",
              "type": "string"
            },
            {
              "internalType": "string",
              "name": "email",
              "type": "string"
            },
            {
              "internalType": "string",
              "name": "phoneNumber",
              "type": "string"
            },
            {
              "internalType": "string",
              "name": "candidateId",
              "type": "string"
            },
            {
              "internalType": "string",
              "name": "candidatePassword",
              "type": "string"
            },
            {
              "internalType": "uint256",
              "name": "voteCount",
              "type": "uint256"
            }
          ],
          "internalType": "struct Voting.Candidate[]",
          "name": "",
          "type": "tuple[]"
        }
      ],
      "stateMutability": "view",
      "type": "function",
      "constant": true
    },
    {
      "inputs": [
        {
          "internalType": "uint256",
          "name": "_startDate",
          "type": "uint256"
        },
        {
          "internalType": "uint256",
          "name": "_endDate",
          "type": "uint256"
        }
      ],
      "name": "setDates",
      "outputs": [],
      "stateMutability": "nonpayable",
      "type": "function"
    },
    {
      "inputs": [
        {
          "internalType": "uint256",
          "name": "_startDate",
          "type": "uint256"
        },
        {
          "internalType": "uint256",
          "name": "_endDate",
          "type": "uint256"
        }
      ],
      "name": "updateDates",
      "outputs": [],
      "stateMutability": "nonpayable",
      "type": "function"
    },
    {
      "inputs": [],
      "name": "getDates",
      "outputs": [
        {
          "internalType": "uint256",
          "name": "",
          "type": "uint256"
        },
        {
          "internalType": "uint256",
          "name": "",
          "type": "uint256"
        }
      ],
      "stateMutability": "view",
      "type": "function",
      "constant": true
    },
    {
      "inputs": [],
      "name": "getVotingStatus",
      "outputs": [
        {
          "internalType": "string",
          "name": "",
          "type": "string"
        }
      ],
      "stateMutability": "view",
      "type": "function",
      "constant": true
    },
    {
      "inputs": [
        {
          "internalType": "address",
          "name": "newOwner",
          "type": "address"
        }
      ],
      "name": "transferOwnership",
      "outputs": [],
      "stateMutability": "nonpayable",
      "type": "function"
    },
    {
      "inputs": [],
      "name": "getTotalVotes",
      "outputs": [
        {
          "internalType": "uint256",
          "name": "",
          "type": "uint256"
        }
      ],
      "stateMutability": "view",
      "type": "function",
      "constant": true
    },
    {
      "inputs": [],
      "name": "emergencyStop",
      "outputs": [],
      "stateMutability": "nonpayable",
      "type": "function"
    },
    {
      "inputs": [],
      "name": "resetVotes",
      "outputs": [],
      "stateMutability": "nonpayable",
      "type": "function"
    },
    {
      "inputs": [],
      "name": "resetElection",
      "outputs": [],
      "stateMutability": "nonpayable",
      "type": "function"
    }
  ],
  "bytecode": "0x6080806040523461004f57600080546001600160a01b031916339081178255907f8be0079c531659141344cd1fd0a4f28419497f9722a3daafe3b4186f6b6457e08180a361260190816100558239f35b600080fdfe608080604052600436101561001357600080fd5b60003560e01c9081630121b93f146120805750806305e2361e1461205d5780630677a81a14610e245780630a84a21714610597578063101158af14610e065780631644181314610de15780632e6997fe14610b2b5780633477ee2e1461097457806335b8e820146107e4578063581c281c146107b057806363a599a41461078757806385a38635146107695780638cb647d3146106eb5780638da5cb5b146106c25780639a0e7d6614610665578063a3ec138d14610622578063a567dd75146105e4578063b0417e98146105b5578063b86eda9114610597578063b9830ff114610524578063dedf141e14610491578063e6b2c87c14610368578063e8f30523146102555763f2fde38b1461012757600080fd5b34610250576020366003190112610250576004356001600160a01b038181169182900361025057600054908116908133036102385782156101f4578183146101a0576001600160a01b031916821760009081557f8be0079c531659141344cd1fd0a4f28419497f9722a3daafe3b4186f6b6457e09080a3005b60405162461bcd60e51b815260206004820152602660248201527f4e6577206f776e6572206973207468652073616d652061732063757272656e746044820152651037bbb732b960d11b6064820152608490fd5b606460405162461bcd60e51b815260206004820152602060248201527f4e6577206f776e65722063616e6e6f74206265207a65726f20616464726573736044820152fd5b60405163245aecd360e01b8152336004820152602490fd5b600080fd5b34610250576000366003190112610250576000546001600160a01b0316330361023857600180805b6102a0575b60006004556000600655600060055560ff1960075416600755600080f35b60045481116103635761035d818392600052826020526000600e604082208281556102cc868201612582565b8260028201556102de60038201612582565b6102ea60048201612582565b6102f660058201612582565b61030260068201612582565b61030e60078201612582565b61031a60088201612582565b61032660098201612582565b610332600a8201612582565b61033e600b8201612582565b61034a600c8201612582565b610356600d8201612582565b015561236d565b9061027d565b610282565b346102505761037636612357565b6000549091906001600160a01b03163303610238576007549060ff821680610485575b61042b57428111156104035780831115610403576107088101808211610415578310610403577f7e3f7f0708a84de9203036abaa450dccc85ad5ff52f78c170f3edb55cf5e8828926001604093836006558260055560ff19161760075582519182526020820152a1005b60405163536a71af60e01b8152600490fd5b634e487b7160e01b600052601160045260246000fd5b60405162461bcd60e51b815260206004820152602c60248201527f43616e6e6f742075706461746520646174657320616674657220766f74696e6760448201526b081a185cc81cdd185c9d195960a21b6064820152608490fd5b50600654421015610399565b346102505761049f36612357565b906007549060ff821661051257428111156104035780831115610403576107088101808211610415578310610403577f7e3f7f0708a84de9203036abaa450dccc85ad5ff52f78c170f3edb55cf5e8828926001604093836006558260055560ff19161760075582519182526020820152a1005b60405163f88b294f60e01b8152600490fd5b34610250576000366003190112610250576000546001600160a01b0316330361023857600180805b610567575b600060068190556005556007805460ff19169055005b60045481116105925761058c818392600052826020526000600e60408220015561236d565b9061054c565b610551565b34610250576000366003190112610250576020600454604051908152f35b3461025057600036600319011261025057336000526002602052602060ff604060002054166040519015158152f35b34610250576020366003190112610250576004356001600160a01b038116908190036102505760005260036020526020604060002054604051908152f35b34610250576020366003190112610250576004356001600160a01b03811690819003610250576000526002602052602060ff604060002054166040519015158152f35b3461025057600036600319011261025057600060019081600454905b8184111561069457602083604051908152f35b90918360005281602052600e604060002001548101809111610415576106ba909361236d565b929190610681565b34610250576000366003190112610250576000546040516001600160a01b039091168152602090f35b346102505760003660031901126102505733600052600260205260ff604060002054161561072c573360005260036020526020604060002054604051908152f35b60405162461bcd60e51b8152602060048201526015602482015274165bdd481a185d995b89dd081d9bdd1959081e595d605a1b6044820152606490fd5b34610250576000366003190112610250576020600554604051908152f35b34610250576000366003190112610250576000546001600160a01b031633036102385742600555005b34610250576000366003190112610250576107e06107cc6124cf565b604051918291602083526020830190612237565b0390f35b3461025057602036600319011261025057600435158015610967575b61094e576004356000526001602052604060002061081d90612393565b6020810151604082015191606081015190608081015160a082015160c083015160e084015161010085015190610120860151926101408701519461016088015196610180890151986101c0015199604051809d819d6004358352602083016101c090526101c0830161088e91612237565b91604001528c80820390606001526108a591612237565b8b810360808d01526108b691612237565b8a810360a08c01526108c791612237565b89810360c08b01526108d891612237565b88810360e08a01526108e991612237565b8781036101008901526108fb91612237565b86810361012088015261090d91612237565b85810361014087015261091f91612237565b84810361016086015261093191612237565b83810361018085015261094391612237565b906101a08301520390f35b6024604051630b81c1a160e21b81526004356004820152fd5b5060045460043511610800565b3461025057602036600319011261025057600435600052600160205260406000208054600182016109a4906122b1565b90600283015492600381016109b8906122b1565b6109c4600483016122b1565b6109d0600584016122b1565b6109dc600685016122b1565b6109e8600786016122b1565b6109f4600887016122b1565b90610a01600988016122b1565b92610a0e600a89016122b1565b94610a1b600b8a016122b1565b96610a28600c8b016122b1565b98610a35600d8c016122b1565b9a600e01549b6040519e8f9e8f9283526101e08060208501528301610a5991612237565b91604001528d8082039060600152610a7091612237565b8c810360808e0152610a8191612237565b8b810360a08d0152610a9291612237565b8a810360c08c0152610aa391612237565b89810360e08b0152610ab491612237565b8881036101008a0152610ac691612237565b878103610120890152610ad891612237565b868103610140880152610aea91612237565b858103610160870152610afc91612237565b848103610180860152610b0e91612237565b8381036101a0850152610b2091612237565b906101c08301520390f35b3461025057600036600319011261025057600454610b488161248e565b610b5560405191826121c0565b818152601f19610b648361248e565b0160005b818110610d65575050600191825b81811115610d1e578284604051918291602090818401828552835180915260408501928060408360051b8801019501936000905b838210610bb75787870388f35b918496819592949698508190603f198b820301855289519081518152828201516101e080858401528201610bea91612237565b60408301516040830152606090818401519183820390840152610c0c91612237565b608090818401519183820390840152610c2491612237565b60a090818401519183820390840152610c3c91612237565b60c090818401519183820390840152610c5491612237565b60e08301519082810360e0840152610c6b91612237565b61010090818401519183820390840152610c8491612237565b61012090818401519183820390840152610c9d91612237565b61014090818401519183820390840152610cb691612237565b61016090818401519183820390840152610ccf91612237565b61018090818401519183820390840152610ce891612237565b6101a090818401519183820390840152610d0191612237565b916101c08091015191015298019201920187969593919492610baa565b806000528360205260406000209060001981019181831161041557610d6092610d49610d5a92612393565b610d5382886124a5565b52856124a5565b5061236d565b610b76565b602090604051610d7481612189565b600081526060839080828401526000604084015280808401528060808401528060a08401528060c08401528060e084015280610100840152806101208401528061014084015280610160840152806101808401526101a083015260006101c0830152828601015201610b68565b3461025057600036600319011261025057604060065460055482519182526020820152f35b34610250576000366003190112610250576020600654604051908152f35b34610250576101a0366003190112610250576004356001600160401b03811161025057610e559036906004016121e1565b6044356001600160401b03811161025057610e749036906004016121e1565b6064356001600160401b03811161025057610e939036906004016121e1565b906084356001600160401b03811161025057610eb39036906004016121e1565b9060a4356001600160401b03811161025057610ed39036906004016121e1565b9160c4356001600160401b03811161025057610ef39036906004016121e1565b9260e4356001600160401b03811161025057610f139036906004016121e1565b93610104356001600160401b03811161025057610f349036906004016121e1565b610124356001600160401b03811161025057610f549036906004016121e1565b906001600160401b03610144351161025057610f7636610144356004016121e1565b926001600160401b03610164351161025057610f9836610164356004016121e1565b946001600160401b03610184351161025057610fba36610184356004016121e1565b968b511561203157602435158015612025575b61200c57885115611fd8578a5115611fa657805115611f7157815115611f3957825115611f0257895115611ed457835115611e9b57845115611e6d57855115611e3957865115611e0557875115611dcb578b9a61102b60045461236d565b998a60045560606040519e8f9061104182612189565b8d825260208201526024356040820152015260808d015260a08c015260c08b015260e08a0152866101008a01526101208901526101408801526101608701526101808601526101a085015260006101c0850152600052600160205260406000208351815560208401518051906001600160401b03821161164b5781906110ca6001850154612277565b601f8111611d96575b50602090601f8311600114611d2457600092611d19575b50508160011b916000199060031b1c19161760018201555b6040840151600282015560608401518051906001600160401b03821161164b5781906111316003850154612277565b601f8111611ce4575b50602090601f8311600114611c7257600092611c67575b50508160011b916000199060031b1c19161760038201555b60808401518051906001600160401b03821161164b57819061118e6004850154612277565b601f8111611c32575b50602090601f8311600114611bc057600092611bb5575b50508160011b916000199060031b1c19161760048201555b60a08401518051906001600160401b03821161164b5781906111eb6005850154612277565b601f8111611b80575b50602090601f8311600114611b0e57600092611b03575b50508160011b916000199060031b1c19161760058201555b60c08401518051906001600160401b03821161164b5781906112486006850154612277565b601f8111611ace575b50602090601f8311600114611a5c57600092611a51575b50508160011b916000199060031b1c19161760068201555b60e08401518051906001600160401b03821161164b5781906112a56007850154612277565b601f8111611a1c575b50602090601f83116001146119aa5760009261199f575b50508160011b916000199060031b1c19161760078201555b6101008401518051906001600160401b03821161164b5781906113036008850154612277565b601f811161196a575b50602090601f83116001146118f8576000926118ed575b50508160011b916000199060031b1c19161760088201555b61012084015180516001600160401b03811161164b578060098401926113618454612277565b601f81116118bb575b50602090601f83116001146118555760009261184a575b50508160011b916000199060031b1c19161790555b61014084015180516001600160401b03811161164b5780600a8401926113bc8454612277565b601f8111611818575b50602090601f83116001146117b2576000926117a7575b50508160011b916000199060031b1c19161790555b61016084015180516001600160401b03811161164b5780600b8401926114178454612277565b601f8111611775575b50602090601f831160011461170f57600092611704575b50508160011b916000199060031b1c19161790555b61018084015180516001600160401b03811161164b5780600c8401926114728454612277565b601f81116116d2575b50602090601f831160011461166c57600092611661575b50508160011b916000199060031b1c19161790555b600d8101936101a08101519485516001600160401b03811161164b576020966114d08354612277565b601f8111611610575b508790601f831160011461157a57611557946115649894847fe64f834082661dd9ed89427b87edb6270fd6dad17198b0938f0edd058914c87f9895600e956101c09560009261156f575b50508160011b916000199060031b1c19161790555b0151910155600454948594604051938493604085526040850190612237565b9083820389850152612237565b0390a2604051908152f35b015190508d80611523565b90601f1983169184600052896000209260005b8181106115f9575094600185600e956101c0956115579a957fe64f834082661dd9ed89427b87edb6270fd6dad17198b0938f0edd058914c87f9c996115649f9b106115e0575b505050811b019055611538565b015160001960f88460031b161c191690558d80806115d3565b92938b60018192878601518155019501930161158d565b61163b908460005289600020601f850160051c8101918b8610611641575b601f0160051c019061237c565b886114d9565b909150819061162e565b634e487b7160e01b600052604160045260246000fd5b015190508780611492565b6000858152602081209350601f198516905b8181106116ba57509084600195949392106116a1575b505050811b0190556114a7565b015160001960f88460031b161c19169055878080611694565b9293602060018192878601518155019501930161167e565b6116fe90856000526020600020601f850160051c8101916020861061164157601f0160051c019061237c565b8861147b565b015190508780611437565b6000858152602081209350601f198516905b81811061175d5750908460019594939210611744575b505050811b01905561144c565b015160001960f88460031b161c19169055878080611737565b92936020600181928786015181550195019301611721565b6117a190856000526020600020601f850160051c8101916020861061164157601f0160051c019061237c565b88611420565b0151905087806113dc565b6000858152602081209350601f198516905b81811061180057509084600195949392106117e7575b505050811b0190556113f1565b015160001960f88460031b161c191690558780806117da565b929360206001819287860151815501950193016117c4565b61184490856000526020600020601f850160051c8101916020861061164157601f0160051c019061237c565b886113c5565b015190508780611381565b6000858152602081209350601f198516905b8181106118a3575090846001959493921061188a575b505050811b019055611396565b015160001960f88460031b161c1916905587808061187d565b92936020600181928786015181550195019301611867565b6118e790856000526020600020601f850160051c8101916020861061164157601f0160051c019061237c565b8861136a565b015190508680611323565b9250600884016000526020600020906000935b601f198416851061194f576001945083601f19811610611936575b505050811b01600882015561133b565b015160001960f88460031b161c19169055868080611926565b8181015183556020948501946001909301929091019061190b565b61199990600886016000526020600020601f850160051c8101916020861061164157601f0160051c019061237c565b8761130c565b0151905086806112c5565b9250600784016000526020600020906000935b601f1984168510611a01576001945083601f198116106119e8575b505050811b0160078201556112dd565b015160001960f88460031b161c191690558680806119d8565b818101518355602094850194600190930192909101906119bd565b611a4b90600786016000526020600020601f850160051c8101916020861061164157601f0160051c019061237c565b876112ae565b015190508680611268565b9250600684016000526020600020906000935b601f1984168510611ab3576001945083601f19811610611a9a575b505050811b016006820155611280565b015160001960f88460031b161c19169055868080611a8a565b81810151835560209485019460019093019290910190611a6f565b611afd90600686016000526020600020601f850160051c8101916020861061164157601f0160051c019061237c565b87611251565b01519050868061120b565b9250600584016000526020600020906000935b601f1984168510611b65576001945083601f19811610611b4c575b505050811b016005820155611223565b015160001960f88460031b161c19169055868080611b3c565b81810151835560209485019460019093019290910190611b21565b611baf90600586016000526020600020601f850160051c8101916020861061164157601f0160051c019061237c565b876111f4565b0151905086806111ae565b9250600484016000526020600020906000935b601f1984168510611c17576001945083601f19811610611bfe575b505050811b0160048201556111c6565b015160001960f88460031b161c19169055868080611bee565b81810151835560209485019460019093019290910190611bd3565b611c6190600486016000526020600020601f850160051c8101916020861061164157601f0160051c019061237c565b87611197565b015190508680611151565b9250600384016000526020600020906000935b601f1984168510611cc9576001945083601f19811610611cb0575b505050811b016003820155611169565b015160001960f88460031b161c19169055868080611ca0565b81810151835560209485019460019093019290910190611c85565b611d1390600386016000526020600020601f850160051c8101916020861061164157601f0160051c019061237c565b8761113a565b0151905086806110ea565b9250600184016000526020600020906000935b601f1984168510611d7b576001945083601f19811610611d62575b505050811b016001820155611102565b015160001960f88460031b161c19169055868080611d52565b81810151835560209485019460019093019290910190611d37565b611dc590600186016000526020600020601f850160051c8101916020861061164157601f0160051c019061237c565b876110d3565b6040516318a996bb60e21b815260206004820152601160248201527018d85b991a59185d1954185cdcdddbdc99607a1b6044820152606490fd5b6040516318a996bb60e21b815260206004820152600b60248201526a18d85b991a59185d19525960aa1b6044820152606490fd5b6040516318a996bb60e21b815260206004820152600b60248201526a383437b732a73ab6b132b960a91b6044820152606490fd5b6040516318a996bb60e21b8152602060048201526005602482015264195b585a5b60da1b6044820152606490fd5b6040516318a996bb60e21b815260206004820152601060248201526f63616e6469646174654164647265737360801b6044820152606490fd5b6040516318a996bb60e21b8152602060048201526005602482015264706172747960d81b6044820152606490fd5b6040516318a996bb60e21b815260206004820152600e60248201526d32b632b1ba34b7b721b2b73a32b960911b6044820152606490fd5b6040516318a996bb60e21b815260206004820152600f60248201526e3b37ba32b922b834b1a73ab6b132b960891b6044820152606490fd5b6040516318a996bb60e21b815260206004820152600c60248201526b30b0b23430b9273ab6b132b960a11b6044820152606490fd5b6040516318a996bb60e21b81526020600482015260096024820152683830b7273ab6b132b960b91b6044820152606490fd5b6040516318a996bb60e21b815260206004820152600b60248201526a0c8c2e8ca9ecc84d2e4e8d60ab1b6044820152606490fd5b6040516334aba99560e01b815260248035600483015290fd5b50601260243510610fcd565b60646040516318a996bb60e21b81526020600482015260046024820152636e616d6560e01b6044820152fd5b3461025057600036600319011261025057602060ff600754166040519015158152f35b3461025057602036600319011261025057600435906006544210158061217e575b1561216f575080158015612164575b61214c5733600052600260205260ff60406000205416612134573360005260026020526040600020600160ff19825416179055600360205280604060002055806000526001602052600e60406000200161210a815461236d565b9055337fa36cc2bebb74db33e9f88110a07ef56e1b31b24b4c4f51b54b1664266e29f45b600080a3005b604051633512759d60e21b8152336004820152602490fd5b60249060405190630b81c1a160e21b82526004820152fd5b5060045481116120b0565b639b8cc47560e01b8152600490fd5b5042600554116120a1565b6101e081019081106001600160401b0382111761164b57604052565b604081019081106001600160401b0382111761164b57604052565b90601f801991011681019081106001600160401b0382111761164b57604052565b81601f82011215610250578035906001600160401b03821161164b5760405192612215601f8401601f1916602001856121c0565b8284526020838301011161025057816000926020809301838601378301015290565b919082519283825260005b848110612263575050826000602080949584010152601f8019910116010190565b602081830181015184830182015201612242565b90600182811c921680156122a7575b602083101461229157565b634e487b7160e01b600052602260045260246000fd5b91607f1691612286565b90604051918260008254926122c584612277565b90818452600194858116908160001461233457506001146122f1575b50506122ef925003836121c0565b565b9093915060005260209081600020936000915b81831061231c5750506122ef935082010138806122e1565b85548884018501529485019487945091830191612304565b9150506122ef94506020925060ff191682840152151560051b82010138806122e1565b6040906003190112610250576004359060243590565b60001981146104155760010190565b818110612387575050565b6000815560010161237c565b906040516123a081612189565b6101c0600e8294805484526123b7600182016122b1565b6020850152600281015460408501526123d2600382016122b1565b60608501526123e3600482016122b1565b60808501526123f4600582016122b1565b60a0850152612405600682016122b1565b60c0850152612416600782016122b1565b60e0850152612427600882016122b1565b610100850152612439600982016122b1565b61012085015261244b600a82016122b1565b61014085015261245d600b82016122b1565b61016085015261246f600c82016122b1565b610180850152612481600d82016122b1565b6101a08501520154910152565b6001600160401b03811161164b5760051b60200190565b80518210156124b95760209160051b010190565b634e487b7160e01b600052603260045260246000fd5b60ff60075416156125575760065442106125305760055442111561250e576040516124f9816121a5565b6005815264115b99195960da1b602082015290565b60405161251a816121a5565b600681526541637469766560d01b602082015290565b60405161253c816121a5565b600b81526a139bdd0814dd185c9d195960aa1b602082015290565b604051612563816121a5565b600f81526e139bdd08125b9a5d1a585b1a5e9959608a1b602082015290565b61258c8154612277565b9081612596575050565b81601f600093116001146125a8575055565b9080839182526125c7601f60208420940160051c84016001850161237c565b555556fea2646970667358221220fbd455575564820814dd4e8c407ae8a26ec80e68449f3f8c98a638dd9a3ffd6c64736f6c63430008130033",
  "immutableReferences": {},
  "source": "\r\n// SPDX-License-Identifier: MIT\r\n\r\n/**\r\n * EtherVox Voting Smart Contract\r\n * Author: Abir Chakraborty\r\n * Description: Modern decentralized voting system with enhanced security\r\n * Version: 2.0.0 - Updated for latest Solidity features\r\n * \r\n * Security Features:\r\n * - Enhanced access control with OpenZeppelin patterns\r\n * - Voting period restrictions with timestamp validation\r\n * - Single vote per address enforcement\r\n * - Comprehensive input validation for all functions\r\n * - Event logging for transparency\r\n * - Gas optimization techniques\r\n */\r\n\r\npragma solidity ^0.8.19;\r\n\r\n// Main voting contract for EtherVox DApp\r\ncontract Voting {\r\n    // Contract owner for administrative functions\r\n    address public owner;\r\n    \r\n    // Structure to store comprehensive candidate information\r\n    struct Candidate {\r\n        uint256 id;\r\n        string name;\r\n        uint256 age;\r\n        string dateOfBirth;       // Format: DD-MM-YYYY\r\n        string panNumber;         // PAN Number\r\n        string aadharNumber;      // Aadhar Number\r\n        string voterEpicNumber;   // Voter EPIC Number\r\n        string electionCenter;    // Election center address\r\n        string party; \r\n        string candidateAddress;  // Candidate's personal address\r\n        string email;\r\n        string phoneNumber;\r\n        string candidateId;       // Unique candidate ID\r\n        string candidatePassword; // Candidate password (hashed)\r\n        uint256 voteCount;\r\n    }\r\n\r\n    // State variables\r\n    mapping(uint256 => Candidate) public candidates;\r\n    mapping(address => bool) public voters;\r\n    mapping(address => uint256) public voterToCandidate; // Track which candidate each voter voted for\r\n\r\n    uint256 public countCandidates;\r\n    uint256 public votingEnd;\r\n    uint256 public votingStart;\r\n    bool public votingInitialized;\r\n\r\n    // Events for transparency and frontend integration\r\n    event CandidateAdded(uint256 indexed candidateId, string name, string party);\r\n    event VoteCast(address indexed voter, uint256 indexed candidateId);\r\n    event VotingPeriodSet(uint256 startTime, uint256 endTime);\r\n    event OwnershipTransferred(address indexed previousOwner, address indexed newOwner);\r\n\r\n    // Custom errors for gas efficiency\r\n    error NotOwner(address caller);\r\n    error VotingNotActive();\r\n    error AlreadyVoted(address voter);\r\n    error InvalidCandidate(uint256 candidateId);\r\n    error EmptyString(string field);\r\n    error InvalidAge(uint256 age);\r\n    error InvalidTimeRange();\r\n    error VotingAlreadyInitialized();\r\n\r\n    // Access control modifier\r\n    modifier onlyOwner() {\r\n        if (msg.sender != owner) revert NotOwner(msg.sender);\r\n        _;\r\n    }\r\n\r\n    // Voting period modifier\r\n    modifier duringVotingPeriod() {\r\n        if (!(votingStart <= block.timestamp && votingEnd > block.timestamp)) {\r\n            revert VotingNotActive();\r\n        }\r\n        _;\r\n    }\r\n\r\n    // Constructor sets the contract deployer as owner\r\n    constructor() {\r\n        owner = msg.sender;\r\n        emit OwnershipTransferred(address(0), msg.sender);\r\n    }\r\n\r\n    // Admin function to add comprehensive candidate information\r\n    // Any authenticated admin can add candidates using their own wallet\r\n    function addCandidate(\r\n        string memory name,\r\n        uint256 age,\r\n        string memory dateOfBirth,\r\n        string memory panNumber,\r\n        string memory aadharNumber,\r\n        string memory voterEpicNumber,\r\n        string memory electionCenter,\r\n        string memory party,\r\n        string memory candidateAddress,\r\n        string memory email,\r\n        string memory phoneNumber,\r\n        string memory candidateId,\r\n        string memory candidatePassword\r\n    ) public returns(uint256) {\r\n        // Input validation\r\n        if (bytes(name).length == 0) revert EmptyString(\"name\");\r\n        if (age == 0 || age < 18) revert InvalidAge(age);\r\n        if (bytes(dateOfBirth).length == 0) revert EmptyString(\"dateOfBirth\");\r\n        if (bytes(panNumber).length == 0) revert EmptyString(\"panNumber\");\r\n        if (bytes(aadharNumber).length == 0) revert EmptyString(\"aadharNumber\");\r\n        if (bytes(voterEpicNumber).length == 0) revert EmptyString(\"voterEpicNumber\");\r\n        if (bytes(electionCenter).length == 0) revert EmptyString(\"electionCenter\");\r\n        if (bytes(party).length == 0) revert EmptyString(\"party\");\r\n        if (bytes(candidateAddress).length == 0) revert EmptyString(\"candidateAddress\");\r\n        if (bytes(email).length == 0) revert EmptyString(\"email\");\r\n        if (bytes(phoneNumber).length == 0) revert EmptyString(\"phoneNumber\");\r\n        if (bytes(candidateId).length == 0) revert EmptyString(\"candidateId\");\r\n        if (bytes(candidatePassword).length == 0) revert EmptyString(\"candidatePassword\");\r\n        \r\n        countCandidates++;\r\n        candidates[countCandidates] = Candidate(\r\n            countCandidates,\r\n            name,\r\n            age,\r\n            dateOfBirth,\r\n            panNumber,\r\n            aadharNumber,\r\n            voterEpicNumber,\r\n            electionCenter,\r\n            party,\r\n            candidateAddress,\r\n            email,\r\n            phoneNumber,\r\n            candidateId,\r\n            candidatePassword,\r\n            0\r\n        );\r\n        \r\n        emit CandidateAdded(countCandidates, name, party);\r\n        return countCandidates;\r\n    }\r\n   \r\n    // Public voting function with enhanced security checks\r\n    function vote(uint256 candidateID) public duringVotingPeriod {\r\n        if (candidateID == 0 || candidateID > countCandidates) {\r\n            revert InvalidCandidate(candidateID);\r\n        }\r\n        if (voters[msg.sender]) {\r\n            revert AlreadyVoted(msg.sender);\r\n        }\r\n              \r\n        voters[msg.sender] = true;\r\n        voterToCandidate[msg.sender] = candidateID;\r\n        candidates[candidateID].voteCount++;\r\n        \r\n        emit VoteCast(msg.sender, candidateID);\r\n    }\r\n    \r\n    // Check if current address has voted\r\n    function checkVote() public view returns(bool) {\r\n        return voters[msg.sender];\r\n    }\r\n    \r\n    // Get which candidate the caller voted for\r\n    function getMyVote() public view returns(uint256) {\r\n        if (!voters[msg.sender]) revert(\"You haven't voted yet\");\r\n        return voterToCandidate[msg.sender];\r\n    }\r\n       \r\n    // Get total number of candidates\r\n    function getCountCandidates() public view returns(uint256) {\r\n        return countCandidates;\r\n    }\r\n\r\n    // Get candidate details by ID - returns all candidate information\r\n    function getCandidate(uint256 candidateID) public view returns (\r\n        uint256 id,\r\n        string memory name,\r\n        uint256 age,\r\n        string memory dateOfBirth,\r\n        string memory panNumber,\r\n        string memory aadharNumber,\r\n        string memory voterEpicNumber,\r\n        string memory electionCenter,\r\n        string memory party,\r\n        string memory candidateAddress,\r\n        string memory email,\r\n        string memory phoneNumber,\r\n        string memory candidateId,\r\n        uint256 voteCount\r\n    ) {\r\n        if (candidateID == 0 || candidateID > countCandidates) {\r\n            revert InvalidCandidate(candidateID);\r\n        }\r\n        Candidate memory candidate = candidates[candidateID];\r\n        return (\r\n            candidateID,\r\n            candidate.name,\r\n            candidate.age,\r\n            candidate.dateOfBirth,\r\n            candidate.panNumber,\r\n            candidate.aadharNumber,\r\n            candidate.voterEpicNumber,\r\n            candidate.electionCenter,\r\n            candidate.party,\r\n            candidate.candidateAddress,\r\n            candidate.email,\r\n            candidate.phoneNumber,\r\n            candidate.candidateId,\r\n            candidate.voteCount\r\n        );\r\n    }\r\n\r\n    // Get all candidates (gas-optimized)\r\n    function getAllCandidates() public view returns (Candidate[] memory) {\r\n        Candidate[] memory allCandidates = new Candidate[](countCandidates);\r\n        for (uint256 i = 1; i <= countCandidates; i++) {\r\n            allCandidates[i-1] = candidates[i];\r\n        }\r\n        return allCandidates;\r\n    }\r\n\r\n    // Admin function to set voting dates (enhanced validation)\r\n    // Any authenticated admin can set voting dates using their own wallet\r\n    function setDates(uint256 _startDate, uint256 _endDate) public {\r\n        if (votingInitialized) {\r\n            revert VotingAlreadyInitialized();\r\n        }\r\n        if (_startDate <= block.timestamp) {\r\n            revert InvalidTimeRange();\r\n        }\r\n        if (_endDate <= _startDate) {\r\n            revert InvalidTimeRange();\r\n        }\r\n        if (_endDate < _startDate + 1800) { // Minimum 30 minutes\r\n            revert InvalidTimeRange();\r\n        }\r\n        \r\n        votingStart = _startDate;\r\n        votingEnd = _endDate;\r\n        votingInitialized = true;\r\n        \r\n        emit VotingPeriodSet(_startDate, _endDate);\r\n    }\r\n\r\n    // Update voting dates (only before voting starts)\r\n    function updateDates(uint256 _startDate, uint256 _endDate) public onlyOwner {\r\n        // Can only update if voting hasn't started yet\r\n        if (votingInitialized && block.timestamp >= votingStart) {\r\n            revert(\"Cannot update dates after voting has started\");\r\n        }\r\n        if (_startDate <= block.timestamp) {\r\n            revert InvalidTimeRange();\r\n        }\r\n        if (_endDate <= _startDate) {\r\n            revert InvalidTimeRange();\r\n        }\r\n        if (_endDate < _startDate + 1800) { // Minimum 30 minutes\r\n            revert InvalidTimeRange();\r\n        }\r\n        \r\n        votingStart = _startDate;\r\n        votingEnd = _endDate;\r\n        votingInitialized = true;\r\n        \r\n        emit VotingPeriodSet(_startDate, _endDate);\r\n    }\r\n\r\n    // Get voting period dates\r\n    function getDates() public view returns (uint256, uint256) {\r\n        return (votingStart, votingEnd);\r\n    }\r\n\r\n    // Get voting status\r\n    function getVotingStatus() public view returns (string memory) {\r\n        if (!votingInitialized) return \"Not Initialized\";\r\n        if (block.timestamp < votingStart) return \"Not Started\";\r\n        if (block.timestamp <= votingEnd) return \"Active\";\r\n        return \"Ended\";\r\n    }\r\n\r\n    // Transfer ownership (enhanced security feature)\r\n    function transferOwnership(address newOwner) public onlyOwner {\r\n        if (newOwner == address(0)) revert(\"New owner cannot be zero address\");\r\n        if (newOwner == owner) revert(\"New owner is the same as current owner\");\r\n        \r\n        address oldOwner = owner;\r\n        owner = newOwner;\r\n        \r\n        emit OwnershipTransferred(oldOwner, newOwner);\r\n    }\r\n\r\n    // Get total votes cast\r\n    function getTotalVotes() public view returns (uint256) {\r\n        uint256 totalVotes = 0;\r\n        for (uint256 i = 1; i <= countCandidates; i++) {\r\n            totalVotes += candidates[i].voteCount;\r\n        }\r\n        return totalVotes;\r\n    }\r\n\r\n    // Emergency stop function (only owner)\r\n    function emergencyStop() public onlyOwner {\r\n        votingEnd = block.timestamp;\r\n    }\r\n\r\n    // Reset all votes and voting period (only owner, for new elections)\r\n    function resetVotes() public onlyOwner {\r\n        // Reset all candidate vote counts\r\n        for (uint256 i = 1; i <= countCandidates; i++) {\r\n            candidates[i].voteCount = 0;\r\n        }\r\n        \r\n        // Reset voting period\r\n        votingStart = 0;\r\n        votingEnd = 0;\r\n        votingInitialized = false;\r\n        \r\n        // Note: Individual voter records (voters mapping) cannot be efficiently reset\r\n        // in Solidity without tracking all voter addresses. For a complete reset,\r\n        // consider redeploying the contract.\r\n    }\r\n\r\n    // Delete all candidates and reset election (only owner)\r\n    function resetElection() public onlyOwner {\r\n        // Reset all candidate vote counts and delete candidates\r\n        for (uint256 i = 1; i <= countCandidates; i++) {\r\n            delete candidates[i];\r\n        }\r\n        countCandidates = 0;\r\n        \r\n        // Reset voting period\r\n        votingStart = 0;\r\n        votingEnd = 0;\r\n        votingInitialized = false;\r\n    }\r\n}\r\n",
  "sourcePath": "D:\\Ethereum\\EtherVox\\contracts\\Voting.sol",
  "compiler": {
    "name": "solc",
    "version": "0.8.19+commit.7dd6d404.Emscripten.clang"
  },
  "schemaVersion": "3.4.16",
  "updatedAt": "2026-01-17T15:17:28.661Z",
  "networkType": "ethereum",
  "devdoc": {
    "kind": "dev",
    "methods": {},
    "version": 1
  },
  "userdoc": {
    "kind": "user",
    "methods": {},
    "version": 1
  }
}